:100000008AC00000A4C00000A2C00000A0C0000080
:100010009EC000009CC000009AC0000098C0000074
:1000200096C0000094C0000092C000000C94A00B89
:100030008EC000008CC000008AC0000088C0000094
:1000400086C0000084C0000082C0000080C00000A4
:100050007EC000007DC000007AC0000078C00000B3
:1000600076C0000074C0000072C0000070C00000C4
:100070006EC000001201100102000008EB034B20CB
:1000800000000102000109024300020100C0320920
:1000900004000001020201000524000110052401F2
:1000A0000301042402060524060001070582030853
:1000B00000FF09040100020A0000000705040240D5
:1000C0000000070583024000000403090424034CD8
:1000D0000069006D00650020004D0069006300723A
:1000E000006F00730079007300740065006D007389
:1000F0000000002003550053004200200074006FF0
:100100000020004C004D005300370030003000321A
:10011000004D0000000011241FBECFEFD2E0DEBF73
:10012000CDBF11E0A0E0B1E0E4ECF8E102C0059041
:100130000D92AA31B107D9F712E0AAE1B1E001C0EE
:100140001D92A93BB107E1F71BD60C94600C58CF68
:100150001F920F920FB60F9211248F938091180166
:10016000823061F480911901882341F0815080939D
:100170001901882319F4109218012F988F910F906C
:100180000FBE0F901F90189580911001823011F0D2
:1001900020E501C020E780911201853011F42C6028
:1001A00007C0863011F4286003C0873009F424604A
:1001B00080910C0190910D01A0910E01B0910F0161
:1001C000803835E2930730E0A30730E0B30729F128
:1001D000803438E3930730E0A30730E0B30729F118
:1001E00080303BE4930730E0A30730E0B30711F41D
:1001F000216013C0803036E9930730E0A30730E078
:10020000B30711F4216011C0803031EE930730E064
:10021000A30730E0B30719F4226081E007C08050E3
:10022000924CA140B04009F4226080E02CBD8DBD0D
:100230000895682FE0911501F091160188E30E945E
:10024000540C9281891710F080E00895E091130119
:10025000F091140184E0818381E008958091170179
:1002600080FF02C0429A01C0429881FF02C0459AB5
:1002700001C0459882FF02C05E9A01C05E9883FF6C
:1002800002C0469A01C0469884FF02C0479A01C046
:10029000479885FF02C05A9A01C05A9886FF02C04B
:1002A0005B9A08955B98089580931801813039F026
:1002B000813018F0823049F404C02F9808952F9AA5
:1002C00008952F9A84E68093190108951F93CF9380
:1002D000DF9380916502803409F079C481E090E079
:1002E000E3DF109266020DC081EE91E05FD7E12F4F
:1002F000F0E0E55EFE4F8083809166028F5F809321
:10030000660210916602103478F380E4E7E6F2E0CA
:10031000DF011D928A95E9F7A0911301B0911401B4
:10032000E0911501F091160180818C93A091130149
:10033000B0911401E0911501F0911601828112969D
:100340008C93E0911301F091140183E08183E0919B
:100350001501F09116018081823209F40EC18332B9
:1003600090F4843109F46BC0853130F4882309F1AD
:10037000833109F010C43DC0803209F4A1C081323C
:1003800009F009C4B6C08E3209F42FC38F3238F495
:100390008C3209F47CC18D3209F0FDC371C2813504
:1003A00009F4E7C3823509F4E9C3813309F0F3C3E3
:1003B0004CC1E0911301F09114011086E0911301FA
:1003C000F091140187E08187E0911301F09114010D
:1003D00081E08287E0911301F09114011386E0918E
:1003E0001301F09114018487E0911301F09114013D
:1003F000D7C382E01EDF882309F0D3C310E0C0E03A
:10040000D0E013C0812F90E0880F991FFD01E80F05
:10041000F91F0996A80FB91F80EC608541E09D0186
:10042000A0D5882309F421961F5FA0911501B091F2
:10043000160112968C911297181720F338C082E09B
:10044000F8DE882309F0ADC310E0C0E0D0E026C09C
:10045000812F90E0AC01440F551FE0911301F09102
:100460001401E40FF51FA80FB91F18962C912087CF
:10047000E0911501F0911601E80FF91F475F5F4FFA
:100480002091130130911401240F351F80EC6085F9
:1004900041E0A3D5882309F421961F5FA09115019F
:1004A000B091160112968C911297181788F2E0916C
:1004B0001301F0911401CD2B09F46BC385E070C3D7
:1004C0008085813031F0813090F0823009F05DC359
:1004D00002C02C985AC32C9880E197E203C0000018
:1004E000000000000197BFEF8F3F9B07C1F72C9AD8
:1004F0004CC384E09EDE882309F053C3289890E023
:1005000034C0C92FD0E09E01220F331F220F331FAA
:10051000E20FF31F808580688087A0911501B0915C
:100520001601FD01E20FF31F80858EBD0DB407FE9D
:10053000FDCFFD01E20FF31F81858EBD0DB407FED7
:10054000FDCFCC0FDD1FCC0FDD1FCA0FDB1F8A854F
:100550008EBD0DB407FEFDCFA20FB31F1B968C916D
:100560008EBD0DB407FEFDCF9F5FE0911501F091A8
:1005700016018281981728F2FAC284E05ADE882395
:1005800009F00FC3289860E057C0462F50E09A0149
:10059000220F331FE20FF31F80858F778087A09192
:1005A0001501B0911601FD01E20FF31F90859EBD6C
:1005B0000DB407FEFDCF2F5F3F4FA20FB31F18965C
:1005C0008C918EBD0DB407FEFDCF440F551F440F17
:1005D000551FE0911301F0911401E40FF51F90876E
:1005E000A0911301B0911401A40FB51FE091150162
:1005F000F0911601E20FF31F808519968C93E0911C
:100600001301F09114011EBC0DB407FEFDCF8EB591
:100610002C5F3F4F220F331FE20FF31F8083E091C7
:100620001301F09114011EBC0DB407FEFDCF8EB571
:10063000E40FF51F83876F5FE0911501F0911601BC
:100640008281681708F4A1CF92C283E0F2DD88238B
:1006500009F0A7C2E0911501F0911601228190E006
:1006600013C02D9880858EBD0DB407FEFDCF81850A
:100670008EBD0DB407FEFDCF82858EBD0DB407FE85
:10068000FDCF2D9A9F5F3396921758F37EC2418516
:10069000442379F020911A0130E0842F90E00197F3
:1006A0002817390731F0E0911301F091140186E029
:1006B00077C22898442309F049C080E88EBD0DB464
:1006C00007FEFDCF82E08EBD0DB407FEFDCF1EBC40
:1006D0000DB407FEFDCF1EBC0DB407FEFDCF80E8B4
:1006E0008EBD0DB407FEFDCF82E08EBD0DB407FEBA
:1006F000FDCF1EBC0DB407FEFDCF8085823049F0D2
:10070000833061F0813011F58EBD0DB407FEFDCF51
:100710001DC08EBD0DB407FEFDCF18C08EBD0DB43B
:1007200007FEFDCF1EBC0DB407FEFDCF83E08EBDDE
:100730000DB407FEFDCF1EBC0DB407FEFDCF8EB578
:100740001EBC0DB407FEFDCF8EB592C020E033E095
:100750001EBC0DB407FEFDCF3EBD0DB407FEFDCFA0
:100760001EBC0DB407FEFDCF8EB51EBC0DB407FE3A
:10077000FDCF0EB400FC0EC02F5F8EE190E003C0F1
:1007800000000000000001975FEF8F3F9507C1F761
:100790002E31F1F690E030E824E03EBD0DB407FEC6
:1007A000FDCF2EBD0DB407FEFDCF1EBC0DB407FE60
:1007B000FDCF82858EBD0DB407FEFDCF9F5F3196C4
:1007C000903259F723E01EBC0DB407FEFDCF2EBDBD
:1007D0000DB407FEFDCF1EBC0DB407FEFDCF8EB5D8
:1007E0001EBC0DB407FEFDCF0EB400FC0CC08EE1A4
:1007F00090E003C00000000000000197AFEF8F3FC2
:100800009A07C1F7E0CF4F3F39F520E033E01EBC37
:100810000DB407FEFDCF3EBD0DB407FEFDCF1EBCDF
:100820000DB407FEFDCF8EB51EBC0DB407FEFDCF87
:100830000EB406FC11C02F5F8EE190E003C00000F3
:10084000000000000197BFEF8F3F9B07C1F72E31DB
:10085000F1F681E090E002C080E090E040931A0160
:10086000892B31F0E0911301F091140185E005C06E
:10087000E0911301F091140181E08183289A91C1E4
:1008800028981EBC0DB407FEFDCF82E08EBD0DB4CE
:1008900007FEFDCF1EBC0DB407FEFDCF8EB51EBCFE
:1008A0000DB407FEFDCF9EB593709093E00180E8F4
:1008B0008EBD0DB407FEFDCF82E08EBD0DB407FEE8
:1008C000FDCF1EBC0DB407FEFDCF392F3C633EBDEE
:1008D0000DB407FEFDCF80E88EBD0DB407FEFDCF41
:1008E00082E08EBD0DB407FEFDCF1EBC0DB407FE29
:1008F000FDCF892F8C628EBD0DB407FEFDCF80E841
:100900008EBD0DB407FEFDCF82E08EBD0DB407FE97
:10091000FDCF1EBC0DB407FEFDCF3EBD0DB407FEDE
:10092000FDCFE0911501F091160120E040E862E072
:10093000592F58634EBD0DB407FEFDCF1EBC0DB43C
:1009400007FEFDCF1EBC0DB407FEFDCF80858EBD1A
:100950000DB407FEFDCF4EBD0DB407FEFDCF6EBD3D
:100960000DB407FEFDCF1EBC0DB407FEFDCF5EBD6E
:100970000DB407FEFDCF4EBD0DB407FEFDCF6EBD1D
:100980000DB407FEFDCF1EBC0DB407FEFDCF3EBD6E
:100990000DB407FEFDCF2F5F3196203259F680E867
:1009A0008EBD0DB407FEFDCF82E08EBD0DB407FEF7
:1009B000FDCF1EBC0DB407FEFDCF9C619EBD0DB4E6
:1009C00007FEFDCF80E88EBD0DB407FEFDCF82E0AF
:1009D0008EBD0DB407FEFDCF1EBC0DB407FEFDCFCE
:1009E0003EBD0DB407FEFDCFC2C028981EBC0DB49D
:1009F00007FEFDCF82E08EBD0DB407FEFDCF1EBC0D
:100A00000DB407FEFDCF8EB51EBC0DB407FEFDCFA5
:100A10009EB593709093E00180E88EBD0DB407FE03
:100A2000FDCF82E08EBD0DB407FEFDCF1EBC0DB420
:100A300007FEFDCF292F2C632EBD0DB407FEFDCF81
:100A400080E88EBD0DB407FEFDCF82E08EBD0DB4F3
:100A500007FEFDCF1EBC0DB407FEFDCF94639EBD07
:100A60000DB407FEFDCF80E88EBD0DB407FEFDCFAF
:100A700082E08EBD0DB407FEFDCF1EBC0DB407FE97
:100A8000FDCF2EBD0DB407FEFDCF20E030E050E8D5
:100A900042E061E05EBD0DB407FEFDCF4EBD0DB47A
:100AA00007FEFDCF1EBC0DB407FEFDCF9091E00107
:100AB000892F88638EBD0DB407FEFDCF5EBD0DB4DA
:100AC00007FEFDCF4EBD0DB407FEFDCF1EBC0DB41D
:100AD00007FEFDCF9C639EBD0DB407FEFDCF1EBC7F
:100AE0000DB407FEFDCF6EBD0DB407FEFDCF1EBCDD
:100AF0000DB407FEFDCF8EB5E0911301F091140106
:100B00001EBC0DB407FEFDCF8EB5E20FF31F80872C
:100B10002F5F3F4F2032310509F0BCCF80E88EBDFA
:100B20000DB407FEFDCF82E08EBD0DB407FEFDCFF4
:100B30001EBC0DB407FEFDCF9091E001892F8C61A2
:100B40008EBD0DB407FEFDCF80E88EBD0DB407FE4F
:100B5000FDCF82E08EBD0DB407FEFDCF1EBC0DB4EF
:100B600007FEFDCF9C639EBD0DB407FEFDCF289A06
:100B70000CC080858093170171DB07C0E0911301E1
:100B8000F0911401809117018087E0911301F09199
:100B9000140181E005C0E0911301F091140182E09D
:100BA0008183109266020CC0F0E0E959FD4F8BE59D
:100BB00091E06081C4D2809166028F5F809366026B
:100BC000E0916602E03480F382E090E06DDBDF913B
:100BD000CF911F9108958091AF02882309F459C0E5
:100BE00084E08093E9008091E80082FD06C01AC08D
:100BF0006091F10081EE91E0A2D28091F200882311
:100C000021F080916502803899F78091F200882365
:100C100049F48091E800982F9B7F9093E8008F77AC
:100C20008093E80083E08093E9008091DF018823CE
:100C300081F18091E80085FFFCCF05C08BE591E054
:100C4000B5D28093F1008091DF01882321F080915B
:100C5000F200803498F38091F2009091E800292FFF
:100C60002E7F2093E8009F779093E800803489F4EA
:100C70008091DF01882369F48091E80085FFFCCF33
:100C80008091E800982F9E7F9093E8008F77809363
:100C9000E80008958091B102813231F0823289F109
:100CA000803209F044C014C08091B002813A09F04A
:100CB0003EC08091E800877F8093E8008CE091E05F
:100CC00067E070E071D48091E800982F9B7F2AC084
:100CD0008091B002813259F58091E800877F80933E
:100CE000E8008CE091E067E070E0AAD48091E80031
:100CF000982F9E7F9093E8008F778093E80044DAE6
:100D000016C08091B002813291F48091E800877F13
:100D10008093E8008091E80080FFFCCF8091E8009C
:100D2000982F9E7F9093E8008F778093E80082E071
:100D300090E0BACA82E061EC42E00CD483E061E862
:100D400042E308D484E060E842E304D48BEE95E00B
:100D500061E052D286E691E061E04EC28CE39CE015
:100D600061E04AC28BEE95E060E046D28CE39CE005
:100D700060E042D281EE91E0CED18BE591E0CBC133
:100D80001F93CF93DF9384B7877F84BF88E10FB62B
:100D9000F89480936000109260000FBE80E090E0B5
:100DA00020E80FB6F89420936100809361000FBE95
:100DB000279A259A249A229A219A209A3A9A3D9A19
:100DC000569A3E9A3F9A529A539A2D9A2C9A289A5A
:100DD00045DAC2D0D9D91092800084E08093810096
:100DE00013E015BD81E080936E002F9A81EE91E0B3
:100DF00092D18BE591E08FD11093A80293D41093F8
:100E0000A802C0E0D1E007C08A81882319F0E881F8
:100E1000F9810995249681E0CC30D807A9F72C9761
:100E2000FACF27E030E0482F50E0CA01022E02C07E
:100E3000959587950A94E2F780FF02C0599A01C000
:100E400059980000000000000000000000000000B1
:100E5000000000000000589A0000000000000000A0
:100E60000000000000000000000000005898215021
:100E700030408FEF2F3F3807C1F6599A5198000044
:100E80000000000000000000000000000000000062
:100E90000000589A29B10000000000000000000086
:100EA000000000000000000000005898519A000067
:100EB0000000000000000000000000000000000032
:100EC0000000269581E0282730E021703070C901AC
:100ED0000895599A519827E030E040E00000000062
:100EE0000000000000000000000000000000000002
:100EF000589A440F4999416000000000000000002A
:100F00000000000000000000000000005898215080
:100F100030405FEF2F3F350709F7519A892B11F0C9
:100F2000599A01C05998000000000000000000001C
:100F300000000000000000000000589A00000000BF
:100F400000000000000000000000000000000000A1
:100F50005898599A842F0895519A509A599A589AA4
:100F60000895FF920F931F93CF93DF93162F042FB3
:100F7000E9015998000000000000000000005898A6
:100F800050DFF82E812F4DDF03C089914ADF0150D9
:100F90000023D9F75998000000000000000000006D
:100FA00000000000000000000000589A000000004F
:100FB000000000000000599A00000000000000003E
:100FC0000000000000000000000000008F2DDF91F5
:100FD000CF911F910F91FF900895BF92CF92DF9212
:100FE000EF92FF920F931F93CF93DF93082F162F4B
:100FF000D42EF22EE32E59980000000000000000CD
:10100000000058980EDFB82E812F0BDF0000000083
:1010100000000000000000000000000000000000D0
:10102000589A5998000000000000000000005898ED
:10103000802F8160F6DE2F2D3E2DC901EC0100E0EE
:1010400010E0ED2CFF2467010894C11CD11C09C0DD
:1010500080E090E0E016F10611F481E090E039DFE5
:1010600089930F5F1F4F0C151D0591F759980000CC
:101070000000000000000000000000000000000070
:101080000000589A00000000000000000000599A7B
:101090000000000000000000000000000000000050
:1010A000000000008B2DDF91CF911F910F91FF90D9
:1010B000EF90DF90CF90BF900895DA01923049F021
:1010C000933061F09130F9F4E4E7F0E022E130E0B0
:1010D0001EC0E6E8F0E023E430E019C0813049F0BA
:1010E000813018F0823079F408C0E9ECF0E08491A6
:1010F00007C0EDECF0E0849103C0E3EFF0E08491F1
:10110000282F30E004C0E0E0F0E020E030E0ED9394
:10111000FC93C9010895FC018FB7F894DF01A05832
:10112000BF4F1196FC93EE93DF01AE57BF4F119660
:10113000FC93EE93EC57FF4F10828FBF0895AC01E4
:101140007FB7F894FC01EC57FF4F8081803899F409
:10115000FA01EE57FF4F8081918101969183808340
:1011600020813181CA0180589F4F2817390731F4F7
:101170005183408303C080818F5F8083DA01A05850
:10118000BF4FED91FC91119760838D919C911197C8
:10119000019611969C938E93ED91FC911197EA170D
:1011A000FB0711F4518340837FBF0895AC017FB7E3
:1011B000F894DC01AE57BF4FED91FC91119760811F
:1011C0008D919C911197019611969C938E93FA01A3
:1011D000EC57FF4F8081815080832D913C91119776
:1011E000CA0180589F4F2817390719F411965C934C
:1011F0004E937FBF862F08959C01E0E0F1E008C088
:10120000808191818217930711F462830895349647
:101210008091A80290E0880F991F880F991F805035
:101220009F4FE817F90761F70895DF93CF9300D038
:10123000CDB7DEB7E0EBF2E08091F100819382E080
:10124000E83BF807C9F78091B0023091B102353020
:1012500009F499C0363048F4313009F445C03130D2
:1012600070F0333009F062C13FC0383009F41CC15E
:10127000393009F43CC1363009F058C19FC080387C
:1012800021F0823809F052C108C09091AB028091E0
:10129000AC02882391F0926010C08091B4028093D8
:1012A000E9008091EB0090E025E0969587952A95DE
:1012B000E1F7982F91701092E9008091E800877F04
:1012C0008093E8009093F1001092F1008091E80083
:1012D000982F9E7F9093E8008F778093E80080910D
:1012E000E80082FFFCCFF9C0882319F0823009F0B2
:1012F0001DC190E08F719070009719F00297B9F5B9
:101300000CC08091B202813009F011C11092AC0280
:10131000333069F58093AC022AC08091B2028823F1
:1013200031F52091B402277009F401C12093E9003E
:101330008091EB0080FF1BC03130A1F48091EB0065
:1013400080618093EB0081E090E002C0880F991FDC
:101350002A95E2F78093EA001092EA008091EB0070
:10136000886003C08091EB0080628093EB00109254
:10137000E9008091E800877F8093E8008091E80091
:10138000982F9E7FAEC0882309F0D0C08091E800DE
:10139000877F8093E8008091E800982F9E7F90934C
:1013A000E8008F778093E8008091E80080FFFCCF11
:1013B0008091B20280688093E300B9C08058823087
:1013C00008F0B4C08091B2029091B3026091B4026F
:1013D000AE014F5F5F4F71DE9C01009709F4A7C01B
:1013E0008091E800877F8093E8008091B602909119
:1013F000B7022817390720F43093B7022093B602BA
:1014000079816A812091B6023091B70240E031C003
:101410008091E80082FF05C03093B7022093B602A6
:101420005CC08091E80080FFF3CF872F962FFC01EE
:1014300005C084918093F10031969A017E2F6F2F21
:101440002115310539F08091F200A9014150504039
:10145000883078F38091F20040E0883009F441E070
:101460008091E800982F9E7F9093E8008F7780937B
:10147000E80021153105A9F61092B7021092B602C4
:10148000442369F08091E80080FFFCCF8091E80060
:10149000982F9E7F9093E8008F778093E80080914B
:1014A000E80082FFFCCF19C0803809F03FC080916E
:1014B000E800877F8093E8008091AD028093F1007F
:1014C0008091E800982F9E7F9093E8008F7780931B
:1014D000E8008091E80082FFFCCF8091E800982F1F
:1014E0009B7F9093E8008F778093E80020C088234B
:1014F000E9F43091AD022091B2022230C0F4809123
:10150000E800877F8093E8002093AD028091E80097
:10151000982F9E7F9093E8008F778093E800332385
:1015200019F4222309F005D105DC01C0B3DB809159
:10153000E80083FF0AC08091EB0080628093EB009B
:101540008091E800877F8093E8000F900F90CF9103
:10155000DF9108958093E9008091EB008160809392
:10156000EB001092ED006093EC004093ED00809151
:10157000EE00881F8827881F08951092F40090E0DD
:101580009093E9001092F0001092E8008091ED0035
:101590008D7F8093ED008091EB008E7F8093EB0038
:1015A0009F5F953069F70895FC014091B602509114
:1015B000B7029B014617570708F49A0140E01EC086
:1015C0008091E80080FFFCCF06C081918093F100FC
:1015D0002150304021F08091F2008830B0F38091AA
:1015E000F20040E0883009F441E08091E800982F53
:1015F0009E7F9093E8008F778093E8002115310556
:1016000021F08091E80082FFDBCF8091E80082FF2B
:1016100002C081E00895442369F08091E80080FFD2
:10162000FCCF8091E800982F9E7F9093E8008F7701
:101630008093E8008091E80082FFFCCF80E008956D
:10164000FC0118C08091E80082FFFCCF06C08091A9
:10165000F10081936150704021F08091F200882365
:10166000B1F78091E800982F9B7F9093E8008F77E7
:101670008093E8006115710529F78091E80080FFEB
:10168000FCCF80E0089556D058D01092AF0210924F
:10169000AD021092B8021092AC021092AB0219BCCB
:1016A00089B5826089BD09B400FEFDCF8091D80064
:1016B000982F9F779093D80080688093D80080916E
:1016C00063008E7F809363008091D8008F7D80932C
:1016D000D8008091E0008E7F8093E0008091E2004E
:1016E00081608093E2008091E20088608093E20054
:1016F00008958091AF02882309F034DB8091E000E7
:1017000081608093E00016D018D01092AF02109242
:10171000AE021092AD028091D8008F778093D800EE
:1017200019BC0895E6DFAFDF81E08093AE027894C4
:10173000089508951092E20008951092E10008952E
:101740001F920F920FB60F9211242F933F934F9336
:101750005F936F937F938F939F93AF93BF93EF9319
:10176000FF938091E10080FF24C08091E20080FF20
:1017700020C08091E1008E7F8093E1008091E200A3
:101780008E7F8093E2008091E20080618093E2008E
:101790008091D80080628093D80019BC81E080934A
:1017A000B802C7DF8091AF02882319F01092AF0210
:1017B000D9DA8091E10084FF2AC08091E20084FFA1
:1017C00026C019BC89B5826089BD09B400FEFDCF71
:1017D0008091D8008F7D8093D8008091E1008F7E2A
:1017E0008093E1008091E2008F7E8093E2008091FF
:1017F000E20081608093E2008091AF02882321F4AF
:1018000081E08093AF02AADA1092B80292DF809151
:10181000E10083FF20C08091E20083FF1CC0809123
:10182000E100877F8093E1001092AD028091E1009A
:101830008E7F8093E1008091E2008E7F8093E200B2
:101840008091E20080618093E20097DE80E060E0BA
:1018500042E080DE6EDFFF91EF91BF91AF919F91EB
:101860008F917F916F915F914F913F912F910F9049
:101870000FBE0F901F9018950F931F938091AF028A
:10188000882379F00091E9001092E9008091E80046
:1018900083FF04C01FB7F894C8DC1FBF0770009314
:1018A000E9001F910F910895991B79E004C0991FD9
:1018B000961708F0961B881F7A95C9F780950895AA
:0418C000F894FFCFCA
:1018C4003C0C0000EB0500006601000080250000D0
:0A18D40000000867021B010A02640D
:00000001FF
